:020000040000FA
:100000000C9446020C946E020C946E020C946E02D8
:100010000C946E020C946E020C946E020C946E02A0
:100020000C946E020C946E020C946E020C946E0290
:100030000C946E020C946E020C946E020C946E0280
:100040000C948E110C946E020C945C110C9436116D
:100050000C946E020C946E020C946E020C946E0260
:100060000C946E020C946E02000000002500280023
:100070002B0000000000240027002A000D0A457212
:10008000726F7221000D0A4572726F7220696E697B
:10009000742063617264000D0A54686973206D6591
:1000A000616E73206974732073697A65206D75734E
:1000B0007420626520616E206578616374206D75BF
:1000C0006C7469706C65206F662035313221000DCB
:1000D0000A46696C65206D75737420626520616ED7
:1000E00020756E61646F726E65642050726F444F4C
:1000F00053206F7264657220696D6167652077694E
:100100007468206E6F2068656164657221000D0A55
:1001100046696C6520676F6F64210066696C6520B5
:100120006265666F726520636865636B696E6720E0
:10013000666F722076616C696420696D6167652005
:100140007479706521000D0A46696C65206D7573C0
:10015000742065786973742C206265206F70656EF9
:1001600020616E64206265206120726567756C6134
:100170007220000D0A54657374696E672066696C9D
:100180006520003A20000D0A46726565206D656D98
:100190006F7279206166746572206F70656E696E2A
:1001A0006720696D6167652000206F70656E20654E
:1001B00072726F7221000D0A496D61676520000D32
:1001C0000A46726565206D656D6F7279206265669D
:1001D0006F7265206F70656E696E6720696D61670B
:1001E00065733A20000D0A426F6F7420706172745B
:1001F0006974696F6E3A20000D0A536D61727470F4
:100200006F727453442076312E31350D0A00000090
:10021000000023002600290004040404040404044C
:1002200002020202020203030303030301020408A1
:100230001020408001020408102001020408102050
:100240000000000800020100000304070000000095
:10025000000000000D0A4368616E67696E672062E6
:100260006F6F7420706172746974696F6E20746F3F
:100270003A20000D0A4E6F206F6E6C696E6520701B
:100280006172746974696F6E7320666F756E642E27
:1002900020436865636B207468617420796F7520F2
:1002A0006861766520612066696C652063616C6CAD
:1002B00065642050415254782E504F20616E642066
:1002C00074727920616761696E2C20776865726548
:1002D00020782069732066726F6D203120746F2042
:1002E000000D0A53656C656374696E6720626F6FF9
:1002F0007420706172746974696F6E206E756D62BE
:10030000657220000D0A496E69742070617274690B
:1003100074696F6E207761733A20000D0A002E0019
:100320002D00202020000D0A000D0A447269766518
:100330003A20000D0A5772697465206572722100B7
:100340000D0A5772697465207365656B206572725A
:1003500021000D0A526561642065727221000D0A48
:10036000506172746974696F6E2066696C6520698A
:100370007320636C6F73656421000D0A50617274A1
:100380006974696F6E2066696C65206973206F708F
:10039000656E210020626C6F636B2023000D0A5094
:1003A0006172746974696F6E2023000D0A52656171
:1003B00064207365656B20657272210045787465F1
:1003C0006E646564207374617475732044494221BE
:1003D000000D0A457874656E646564205374617419
:1003E000757320434D443A000D0A457874656E6478
:1003F000656420696E697421204E6F7420696D7088
:100400006C656D656E74656421000D0A45787465D0
:100410006E64656420666F726D617421204E6F7426
:1004200020696D706C656D656E74656421000D0AE0
:10043000457874656E6465642077726974652120FF
:100440004E6F7420696D706C656D656E74656421A6
:10045000000D0A2A2A2A2A2A2A2A2A2053656E648B
:10046000696E672044494221202A2A2A2A2A2A2AF8
:100470002A000D0A4E6F74206F75722049442100C6
:100480000D0A52657365740D0A00D81111241FBE40
:10049000CFEFD8E0DEBFCDBF11E0A0E0B1E0E0E6F5
:1004A000FEE402C005900D92A634B107D9F727E00B
:1004B000A6E4B1E001C01D92A437B207E1F712E053
:1004C000C6E4D2E004C02197FE010E94A823C534EF
:1004D000D107C9F70E9442120C942E270C940000F9
:1004E000A82FB92F459A55274AE04A9905C05A9531
:1004F000E1F74A95D1F745C061E04F9B01C0FCCFC1
:100500008AE08A95F1F798E04F9901C007C060FD35
:100510000EC061E00894000000000EC060FD04C041
:1005200060E08894000008C060E0089405C061E0C5
:100530008894000000000000771F9A9539F08FE042
:100540008A95F1F7000000000000DECF7D9394E66D
:10055000613029F04F9908C09A9551F0FBCF4F9B1D
:1005600003C09A9529F0FBCF87E08A95F1F7CBCFAE
:1005700077277D9345984A9B01C0FDCF992788270F
:100580000895459881E099270895A82FB92F459A95
:100590004A9901C0FDCF7D91703031F198E077FF2D
:1005A00013C05E9A84E08A95F1F7000000005E981F
:1005B0009A9529F0771F8DE08A95F1F7F0CF8BE0BF
:1005C0008A95F1F70000E7CF9A9539F0771F82E11D
:1005D0008A95F1F700000000E2CF80E18A95F1F7FB
:1005E000000000000000D7CF459885E04A9B03C07B
:1005F0008A95D9F703C0992788270895992781E01C
:100600000895AF92BF92CF92DF92EF92FF920F9335
:100610001F93CF93DF936C017B018B01040F151F98
:10062000EB015E01AE18BF08C017D10759F0699100
:10063000D601ED91FC910190F081E02DC601099564
:10064000892B79F7C501DF91CF911F910F91FF9011
:10065000EF90DF90CF90BF90AF900895FC01538D45
:10066000448D252F30E0842F90E0821B930B54178C
:1006700010F0CF96089501970895FC01918D828D19
:10068000981761F0A28DAE0FBF2FB11D5D968C91B2
:10069000928D9F5F9F73928F90E008958FEF9FEFF1
:1006A0000895FC01918D828D981731F0828DE80FAD
:1006B000F11D858D90E008958FEF9FEF0895FC0167
:1006C000918D228D892F90E0805C9F4F821B910934
:1006D0008F739927089583EB93E00E945F0321E0D5
:1006E000892B09F420E0822F089580E090E0892B87
:1006F00029F00E946B0381110C9400000895FC0105
:10070000A48DA80FB92FB11DA35ABF4F2C91848D72
:1007100090E001968F739927848FA689B7892C93CF
:10072000A089B1898C91837080648C93938D848D22
:10073000981306C00288F389E02D80818F7D808325
:100740000895EF92FF920F931F93CF93DF93EC01E5
:1007500081E0888F9B8D8C8D98131AC0E889F98968
:10076000808185FF15C09FB7F894EE89FF8960836B
:10077000E889F98980818370806480839FBF81E0EC
:1007800090E0DF91CF911F910F91FF90EF9008952E
:10079000F62E0B8D10E00F5F1F4F0F731127E02E09
:1007A0008C8D8E110CC00FB607FCFACFE889F98941
:1007B000808185FFF5CFCE010E947F03F1CFEB8DC5
:1007C000EC0FFD2FF11DE35AFF4FF0829FB7F89415
:1007D0000B8FEA89FB8980818062CFCF0F931F93B3
:1007E000CF93DF938C01D0E0C0E0F801EC0FFD1F48
:1007F0006491662341F083EB93E00E94A103892B6F
:1008000011F02196F2CFCE01DF91CF911F910F9180
:100810000895CF93DF93EC01888D8823B9F0AA89DE
:10082000BB89E889F9898C9185FD03C0808186FDAB
:100830000DC00FB607FCF7CF8C9185FFF2CF8081FA
:1008400085FFEDCFCE010E947F03E9CFDF91CF91ED
:100850000895833081F028F4813099F08230A9F036
:1008600008958730A9F08830C9F08430B1F48091C0
:1008700080008F7D03C0809180008F7780938000FF
:10088000089584B58F7784BD089584B58F7DFBCF9F
:100890008091B0008F778093B00008958091B00070
:1008A0008F7DF9CF1F93CF93DF93282F30E0F9018D
:1008B000E05CFD4F8491F901E45DFD4FD491F901B5
:1008C000E85EFD4FC491CC23A9F0162F81110E9440
:1008D0002904EC2FF0E0EE0FFF1FE859FF4FA59120
:1008E000B4918FB7F894EC91111108C0D095DE2324
:1008F000DC938FBFDF91CF911F910895DE2BF8CF4E
:10090000CF93DF9390E0FC01E45DFD4F2491885E7E
:100910009D4FFC0184918823D1F090E0880F991FAE
:10092000FC01EE58FF4FA591B491FC01E859FF4F2F
:10093000C591D49161110EC09FB7F8948C91E22FAC
:10094000E0958E238C932881E223E8839FBFDF917B
:10095000CF9108958FB7F894EC91E22BEC938FBF71
:10096000F6CF3FB7F89480914B0190914C01A09144
:100970004D01B0914E0126B5A89B05C02F3F19F03F
:100980000196A11DB11D3FBFBA2FA92F982F88270F
:10099000BC01CD01620F711D811D911D42E0660FEA
:1009A000771F881F991F4A95D1F708958F929F92BC
:1009B000AF92BF92CF92DF92EF92FF924B015C0118
:1009C0000E94B1046B017C010E94B1046C197D0985
:1009D0008E099F09683E734081059105A8F321E0C7
:1009E000821A9108A108B10888EEC80E83E0D81ECB
:1009F000E11CF11C81149104A104B10429F7FF90BA
:100A0000EF90DF90CF90BF90AF909F908F90089520
:100A10002FB7F89460914701709148018091490186
:100A200090914A012FBF0895CF93DF93EC01E981A4
:100A3000FA81908181819CBD8DBDE981FA8160E060
:100A400082810E94520481E08B83DF91CF910895CF
:100A50008EBD0DB407FEFDCF08958FEF8EBD0DB492
:100A600007FEFDCF8EB508950F931F93CF93DF93AD
:100A7000EC010E9408058B010E942D058F3F69F053
:100A80000E940805601B710BC617D707A8F780E006
:100A9000DF91CF911F910F91089581E0F9CFCF930E
:100AA000DF93FC012381222361F0EC010180F281BC
:100AB000E02D61E082810E9452048FEF0E942805A0
:100AC0001B82DF91CF910895DF92EF92FF920F93F7
:100AD0001F93CF93DF938C01C62FD22FF32EE42EDA
:100AE000D52EFC018381811103C0C8010E94140529
:100AF000CC2321F08CE291E00E9434058C2F80649D
:100B00000E9428058D2D0E9428058E2D0E94280503
:100B10008F2D0E9428058D2F0E94280587E8C1117E
:100B200001C085E90E9428050E942D05CBE00E94A6
:100B30002D05F801848387FF02C0C150C1F7DF9102
:100B4000CF911F910F91FF90EF90DF9008950F9339
:100B50001F93CF93DF93EC0189018D81833039F0AE
:100B600089E0440F551F661F771F8A95D1F79A01B8
:100B7000AB0168E1CE010E946405882319F082E38D
:100B8000888339C08EEF0E942805F80180818EBDD0
:100B9000818132961E5F0DB407FEFDCF8EBDE0173A
:100BA000F10711F08191F7CF0DB407FEFDCF8FEF64
:100BB0000E9428058FEF0E9428050E942D058C8336
:100BC0008F71853099F480ED97E00E943405182FDD
:100BD0008AE51123A9F220E030E0A9016DE0CE0101
:100BE0000E946405882361F089E2CACF87E5888383
:100BF000CE010E944F05CE010E944F0510E007C0B4
:100C00000E942D058111F0CFCE010E944F05812F4A
:100C1000DF91CF911F910F910895EF92FF920F9363
:100C20001F93CF93DF93EC0179018D81833039F0ED
:100C300089E0440F551F661F771F8A95D1F79A01E7
:100C4000AB0161E1CE010E946405882339F080E3A5
:100C50008883CE010E944F0580E037C00E940805BE
:100C60008B010E942D058C838F3F69F40E9408053B
:100C7000601B710B693E7340A0F385E58883CE014C
:100C80000E944F05E6CF8E3F11F080E5F7CF8FEF42
:100C90008EBDF701D701A150BE4F9FEF0DB407FEE7
:100CA000FDCF8EB59EBD8193AE17BF07B9F70DB4CA
:100CB00007FEFDCF8EB58C931C820E942D050E94ED
:100CC0002D05CE010E944F0581E0DF91CF911F914C
:100CD0000F91FF90EF900895EF92FF921F93CF93A3
:100CE000DF93FC01208111E020FF14C0EC017C01A6
:100CF000F7E0EF0EF11C4B815C816D817E81E98113
:100D0000FA819701808191810E94A705182F811196
:100D100008C010E0812FDF91CF911F91FF90EF90DD
:100D20000895888181FD04C088818E7F8883F2CFF9
:100D3000E981FA814B815C816D817E818485958515
:100D4000A685B785480F591F6A1F7B1F97018081B1
:100D500091810E94A7058111E7CFDBCFCF92DF926F
:100D6000EF92FF921F93CF93DF93EC016A017B0117
:100D7000122F8B819C81AD81BE818C159D05AE05A6
:100D8000BF05B1F0CE010E946C0681110AC090E04F
:100D900080E0DF91CF911F91FF90EF90DF90CF9097
:100DA000089512FF0CC01882CB82DC82ED82FE8295
:100DB00013708881182B1883CE010796EACFE9813A
:100DC000FA819E01295F3F4FB701A6018081918181
:100DD0000E940D068111E7CFDACF8F929F92AF92DA
:100DE000BF92CF92DF92EF92FF920F931F931092D8
:100DF000550441E050E060E070E0409358045093A7
:100E0000590460935A0470935B0420E534E03093F6
:100E1000720420937104109270044FEF5FEFBA01D7
:100E20004093730450937404609375047093760434
:100E3000882309F450C020E040E050E0BA0180E788
:100E400094E00E94AE06009761F480E01F910F913C
:100E5000FF90EF90DF90CF90BF90AF909F908F90DA
:100E60000895FC01E254FE4F20812F7771F78A53D9
:100E70009E4FFC01C080D180E280F380C114D10478
:100E8000E104F10411F320E0B701A60180E794E04A
:100E90000E94AE06FC01892BC1F2838594858115E1
:100EA000924099F68089823081F686859785892BD4
:100EB00061F22585209352048FEF820F80935304B3
:100EC00080E091E0291769F08F5F893041F488E074
:100ED00080935404BACFC12CD12C7601D4CF990F72
:100EE000F1CF809354044689578970E060E0411542
:100EF000510521F444A155A166A177A140935C045A
:100F000050935D0460935E0470935F04268537857B
:100F100046015701820E931EA11CB11C80926404ED
:100F200090926504A0926604B09267042189328988
:100F30003093570420935604440F551F661F771FA4
:100F4000480D591D6A1D7B1D40936C0450936D0420
:100F500060936E0470936F0421893289A5E0220F9B
:100F6000331FAA95E1F721503E4F232F33272695B3
:100F7000420F531F611D711D409360045093610423
:100F800060936204709363040389148930E020E065
:100F90000115110521F400A111A122A133A1C41A48
:100FA000D50AE60AF70AC00ED11EE21EF31E04C0DF
:100FB000F694E794D794C7948A95D2F7D701C601DF
:100FC0000196A11DB11D8093680490936904A093BC
:100FD0006A04B0936B0485EFC8168FE0D806E1046D
:100FE000F10420F48CE0809355042FCF80E125EFAD
:100FF000C2162FEFD206E104F10468F084A595A58E
:10100000A6A5B7A580936C0490936D04A0936E047D
:10101000B0936F0480E28093550481E017CF8F92E4
:101020009F92AF92BF92CF92DF92EF92FF920F9377
:101030001F93423051056105710560F480E01F91F6
:101040000F91FF90EF90DF90CF90BF90AF909F9067
:101050008F900895FC01C08CD18CE28CF38CC41667
:10106000D506E606F70650F3480159016A017B01EF
:101070008581803241F584899589A689B78917E0F1
:1010800076956795579547951A95D1F7480F591F4B
:101090006A1F7B1F23E0CF0180960E94AE06009757
:1010A00069F2E894C7F8DD24EE24FF24CC0CDD1CA3
:1010B000CC0CDD1C8C0D9D1DFC0180829182A282D6
:1010C000B38281E0BCCF803109F0B8CF4489558923
:1010D000668977894D0D511D611D711D23E0CF017A
:1010E00080960E94AE06009709F4A8CFDD24EE2476
:1010F000FF24CC0CDD1CC80ED91EF6011183008321
:10110000E0CFCF92DF92EF92FF920F931F93CF9396
:10111000DF93423051056105710550F48FEFDF9187
:10112000CF911F910F91FF90EF90DF90CF90089596
:10113000FC01C08CD18CE28CF38CC416D506E6067B
:10114000F70660F389016A017B01EC018581803239
:10115000B9F584899589A689B789E7E07695679579
:1011600057954795EA95D1F7480F591F6A1F7B1F7E
:1011700022E0CE0180960E94AE06009779F2E894B4
:10118000C7F8DD24EE24FF24CC0CDD1CCC0CDD1CC8
:101190008C0D9D1DFC0180819181A281B381BF7066
:1011A000488D598D6A8D7B8D481759076A077B07D3
:1011B00038F1F80180839183A283B38381E0AFCFBC
:1011C000803109F0ABCF44895589668977894D0D07
:1011D000511D611D711D22E0CF0180960E94AE0657
:1011E000009709F49BCFDD24EE24FF24CC0CDD1CFA
:1011F000C80ED91EF60180819181B0E0A0E0D0CF69
:1012000080E08DCFCF93DF93FC012081211104C0BA
:1012100081E0DF91CF910895EC01828182FF39C096
:1012200044895589668977898681978121E08096EE
:101230000E94AE06009729F489818160898380E04D
:10124000E8CFEC81FD81EF70FF2725E0EE0FFF1F57
:101250002A95E1F7E80FF91F309771F38081853EF9
:1012600059F3888183FF08C0888D998DAA8DBB8D25
:10127000848F958FA68FB78F8C8D9D8D938F828F46
:101280008C8D9D8DAE8DBF8DB58BA48B8A818B7F10
:101290008A838E819F8180960E946C06882361F2EA
:1012A000B7CF4F925F926F927F928F929F92AF9241
:1012B000BF92CF92DF92EF92FF920F931F93CF9343
:1012C000DF93EC014A015B014C845D846E847F8472
:1012D000A881AA2309F486C0488959896A897B892B
:1012E000481559056A057B0569F081149104A1042C
:1012F000B10451F41C861D861E861F86888A998A31
:10130000AA8ABB8A81E073C0A3FF59C0088D198DDA
:101310002A8D3B8D081519052A053B0508F462C086
:10132000EE81FF81848190E009968A019B01015042
:10133000110921093109082E04C036952795179502
:1013400007950A94D2F775016401B1E0CB1AD10870
:10135000E108F10804C0F694E794D794C7948A95FD
:10136000D2F7C016D106E206F30628F0452B462B2D
:10137000472B09F052C0A6FF4BC0848D958DA68DDA
:10138000B78D8C879D87AE87BF878E01045F1F4F07
:10139000C114D104E104F10409F4B0CF4C855D859A
:1013A0006E857F8598018E819F810E94810891E0E2
:1013B000C91AD108E108F108181654F313C0A5FFA3
:1013C000AFCFEE81FF818681978125E0880F991F3D
:1013D0002A95E1F7B0E0A0E088159905AA05BB05BC
:1013E00008F08CCF4C865D866E867F8680E0DF912C
:1013F000CF911F910F91FF90EF90DF90CF90BF9012
:10140000AF909F908F907F906F905F904F900895D6
:101410008C8D9D8DAE8DBF8DB4CFC01AD10AE20ADE
:10142000F30AB3CF3F924F925F926F927F928F9267
:101430009F92AF92BF92CF92DF92EF92FF920F9363
:101440001F93CF93DF9300D000D0CDB7DEB74C0110
:10145000FC01828184608283A680B78044845584A5
:1014600066847784F501C084D184E284F384C41453
:10147000D504E604F70410F011E003C07301620123
:1014800010E0FFEFCF1ADF0AEF0AFF0AF501808DA7
:10149000918DA28DB38D8C159D05AE05BF0538F4D9
:1014A000111131C0C084D184E284F384E5CF4C149F
:1014B0005D046E047F0439F19E012F5F3F4FB70139
:1014C000A601C5010E94810887FD1DC08823C9F2BD
:1014D00089819A81AB81BC81892B8A2B8B2B89F6E0
:1014E000112329F0F501C086D186E286F3860FEF3D
:1014F0001FEF2FEF3FE0B701A601C5010E940F08C3
:10150000382E811118C0312C832D0F900F900F9021
:101510000F90DF91CF911F910F91FF90EF90DF908F
:10152000CF90BF90AF909F908F907F906F905F9083
:101530004F903F900895411451046104710431F4B7
:10154000F401C486D586E686F786DECF970186014C
:10155000B301A201C5010E940F088111F1CFD3CFC1
:101560009FEF909354012FE3209355012FEC20938C
:10157000560123EF209357012CEF209358019093AD
:10158000590193EC90935A0190E890935B018093FA
:101590005C0190935D0190935E0160935F01909375
:1015A000600190936101EBE5F1E080E091E0E236CB
:1015B000F90719F091918927F9CF2EE030E03093A7
:1015C000510120935001982F9A6A90936201869559
:1015D0008A6A8093630188EC8093640110926501AC
:1015E0000895CF93DF93EC0180E2FB013C96DE018E
:1015F0001C9601900D928A95E1F7FB0182819381FF
:101600009B838A8384819581A681B7818C839D8306
:10161000AE83BF8380859185A285B38588879987AE
:10162000AA87BB8784E291E09983888384A58CA7ED
:1016300085A596A5A7A5B0A98DA79EA7AFA7B8AB6E
:1016400081A992A99AAB89AB83A98BABDF91CF918A
:1016500008950C960C940209FC01848583FF17C041
:1016600084A195A1A6A1B7A1448D558D668D778DD6
:10167000841B950BA60BB70B811520E89207A105DB
:10168000B10520F08FEF9FE7A0E0B0E0089580E083
:1016900090E0DC01F1CF089590E080E00895FC0136
:1016A00001900020E9F73197AF01481B590BBC01AD
:1016B00083EB93E00C9401038F929F92AF92BF92C1
:1016C0000F931F93CF93DF93CDB7DEB7A1970FB6DC
:1016D000F894DEBF0FBECDBF19A2423008F44AE035
:1016E0008E010F5D1F4F842E912CB12CA12CA501D2
:1016F00094010E948623E62FB901CA01EA30F4F46E
:10170000E05DD801EE938D01232B242B252B79F757
:1017100090E080E0109719F0CD010E944F0BA19648
:101720000FB6F894DEBF0FBECDBFDF91CF911F91F2
:101730000F91BF90AF909F908F900895E95CE1CF9B
:10174000CF92DF92EF92FF92CF93DF936C01990FCC
:10175000EE08FF08F7FE19C06DE283EB93E00E94EC
:10176000A103EC0166277727CB016C197D098E094F
:101770009F094AE00E945C0B8C0F9D1FDF91CF9167
:10178000FF90EF90DF90CF9008954AE0C701B60137
:10179000DF91CF91FF90EF90DF90CF900C945C0B96
:1017A000FC01808181110FC080E2DF01982F1D9222
:1017B0009A95E9F777836683DB0115969C919031C2
:1017C00029F0903211F080E0089580E4808381E078
:1017D00082830895CF93DF93EC01888199810097EC
:1017E00011F00E945322198218821D821C821B82D2
:1017F0001A82DF91CF910895FC0180819181009739
:1018000011F00C94532208950E946B240F931F93A0
:10181000CF93DF93EC0188819981009759F02A8159
:101820003B812617370730F081E0DF91CF911F9180
:101830000F9108958B016F5F7F4F0E94AE23009739
:1018400059F0998388831B830A832C813D81232B44
:1018500059F7FC011082E8CF80E0E7CFEF92FF92CA
:101860000F931F93CF93DF93EC017B018A01BA01A1
:101870000E94060C81110BC0CE010E94EA0BCE0122
:10188000DF91CF911F910F91FF90EF9008951D83ED
:101890000C83B701888199810E948624F0CF2F9212
:1018A0003F924F925F926F927F928F929F92AF92F0
:1018B000BF92CF92DF92EF92FF920F931F93CF933D
:1018C000DF93EC015B014A01888183FFC5C08A81F7
:1018D00081FFC2C083FDB7C0A40170E060E08889C9
:1018E0009989AA89BB8980959095A095B095841710
:1018F0009507A607B70708F4AFC064011E018CE086
:10190000280E311C088919892A893B89C114D10400
:1019100009F4E1C08E819F81B901A80129E0769583
:101920006795579547952A95D1F7DC011396FC905A
:10193000F4221170F1101BC04C855D856E857F858A
:101940000115110509F0F4C0411551056105710536
:1019500009F488C091010E94810887FD7DC0811132
:1019600006C0CE010E94120A882309F475C0EE81D8
:10197000FF814C855D856E857F85425051096109E7
:101980007109848104C0440F551F661F771F8A9513
:10199000D2F780899189A289B389840F951FA61FE8
:1019A000B71FAC01BD014F0D511D611D711D01150A
:1019B000110529F4C114B2E0DB0608F06EC080E026
:1019C00092E0801B910B76018C159D0508F47C013B
:1019D0000115110571F4488859886A887B88888DBB
:1019E000998DAA8DBB8D25E0481659066A067B069F
:1019F00008F421E0CF0180960E94AE06009761F1C5
:101A0000A701B501800F911F0E947D240E0D1F1D9F
:101A10000115124039F48E819F8180960E946C06D8
:101A20008823D1F088899989AA89BB898E0D9F1D49
:101A3000A11DB11D888B998BAA8BBB8BAE0CBF1CD3
:101A4000CE18DF085FCF488D598D6A8D7B8DCE0112
:101A50000E945109811140CF8981816089838FEF74
:101A60009FEF4DC08C8D9D8DAE8DBF8D0097A105D4
:101A7000B10571F4CE010E94120A882369F38C85A6
:101A80009D85AE85BF858C8F9D8FAE8FBF8F6FCFAD
:101A90008C879D87AE87BF876ACF83A194A1A5A1BC
:101AA000B6A1481759076A077B0741F410A28FEFC8
:101AB0009FEFDC0183A394A3A5A3B6A3EE81FF81CE
:101AC0009501808191810E94A705882329F2E12C4C
:101AD00082E0F82EA7CF888D998DAA8DBB8D8017B7
:101AE0009107A207B30738F48A81088F198F2A8FCC
:101AF0003B8F84608A838A8187FD14C0C401DF9193
:101B0000CF911F910F91FF90EF90DF90CF90BF90FA
:101B1000AF909F908F907F906F905F904F903F908D
:101B20002F900895CE010E9402098111E7CF94CF32
:101B3000FC014250510961097109848104C0440FBC
:101B4000551F661F771F8A95D2F780899189A289D0
:101B5000B389480F591F6A1F7B1F31CF0C960C9415
:101B60004F0CCF93DF931F92CDB7DEB7698341E06F
:101B700050E0BE016F5F7F4F0C960E944F0C0F909C
:101B8000DF91CF9108954F925F926F927F928F92E3
:101B90009F92AF92BF92CF92DF92EF92FF920F93FC
:101BA0001F93CF93DF93EC015B018A018881882327
:101BB00009F4C1C09A8190FFBEC083FF16C0888D12
:101BC000998DAA8DBB8D488959896A897B89841B27
:101BD000950BA60BB70BA80170E060E048175907FA
:101BE0006A077B07A0F08C0112C085FF10C0EE8150
:101BF000FF818681978155E0880F991F5A95E1F7FB
:101C000028893989821B930B8017910760F378012B
:101C10002E012CE0420E511C612C42E0742EE11486
:101C2000F10409F4B5C088899989AA89BB894C0156
:101C300021E092222881EE81FF81AC01BD0139E0D3
:101C400076956795579547953A95D1F725FF29C021
:101C5000848D958DA68DB78D480F591F6A1F7B1FE8
:101C6000EE81FF818114910409F06BC0E11482E0E0
:101C7000F80608F466C083A194A1A5A1B6A14817EF
:101C800059076A077B0709F45CC09501808191813F
:101C90000E940D06882309F44EC0C12C82E0D82E84
:101CA00066C0D380D4228114910481F4D1100EC077
:101CB000892B8A2B8B2B81F526FF29C0848D958D4E
:101CC000A68DB78D8C879D87AE87BF87EE81FF81FC
:101CD0004C855D856E857F8542505109610971098A
:101CE000848104C0440F551F661F771F8A95D2F761
:101CF00080899189A289B389840F951FA61FB71F78
:101D0000AC01BD014D0D511D611D711DA9CF8C8D03
:101D10009D8DAE8DBF8DD6CF4C855D856E857F85C3
:101D20009201CF010E94810887FD05C08111CECFAD
:101D30008881807769F58981826089838FEF9FEF41
:101D40002AC0C3018819990967018E159F0508F4F7
:101D50006C0120E0CF0180960E94AE06009759F3F7
:101D6000BC01680D791DA601C5010E947D24AC0C43
:101D7000BD1C88899989AA89BB898C0D9D1DA11DCF
:101D8000B11D888B998BAA8BBB8BEC18FD0847CFB4
:101D9000C8018E199F09DF91CF911F910F91FF907C
:101DA000EF90DF90CF90BF90AF909F908F907F90FB
:101DB0006F905F904F900895EF92FF920F931F9353
:101DC000CF93DF931F92CDB7DEB77C01962FF7013B
:101DD00040895189628973898A019B0185E0369522
:101DE0002795179507958A95D1F70F7011F09111E6
:101DF0002BC041E050E0BE016F5F7F4FC7010E94E2
:101E0000C30D813051F090E080E00F90DF91CF91D1
:101E10001F910F91FF90EF900895F70180899189AC
:101E2000A289B3894F96A11DB11D808B918BA28B86
:101E3000B38BF701868197818796F0E20F9F90011F
:101E40001124820F931FE1CF405E5F4F6F4F7F4F92
:101E5000408B518B628B738BECCF8F929F92AF92A2
:101E6000BF92CF92DF92EF92FF920F931F93CF9387
:101E7000DF931F92CDB7DEB78C01FC01848C958C6B
:101E8000A68CB78CC08CD18CE28CF38C41E050E0F6
:101E9000BE016F5F7F4F0C960E94C30D019781F0CA
:101EA0008FEF9FEF0F90DF91CF911F910F91FF90D8
:101EB000EF90DF90CF90BF90AF909F908F9008955C
:101EC000898190E0F801848E958EA68EB78EC08EA3
:101ED000D18EE28EF38EE6CFCF93DF931F92CDB7F4
:101EE000DEB741E050E0BE016F5F7F4F0C960E946D
:101EF000C30D019731F4898190E00F90DF91CF916C
:101F000008958FEF9FEFF9CF2F923F924F925F92FC
:101F10006F927F928F929F92AF92BF92CF92DF92F9
:101F2000EF92FF920F931F93CF93DF9300D000D0D7
:101F3000CDB7DEB75C01FB015C834B83309711F4B6
:101F400080E05DC180818077D9F3D5018C918111CA
:101F5000F7CFAB81BC811196CD90DC9012978C911C
:101F6000837066246394882349F0C6010C966DE063
:101F700070E00E945E2366246394660E2A83EB80E1
:101F8000FC808F01BC82AB8240E050E0BA01CF01FF
:101F90000E9451091982412C512C712C1701B6E075
:101FA0002B0E311CF80180889188A288B38861E0EB
:101FB000C8010E94DC0EFC01892B11F28081853E54
:101FC00009F446C1882309F44EC1561450F18E32EB
:101FD00009F447C193859F3009F05AC0711023C09E
:101FE00086FFE0CF8F71782E25852983482EA42D7A
:101FF000A150BB0BCD01BDE0B89F9001B99F300D42
:1020000011242C153D0508F02CC160E0653098F4D2
:1020100081819281C216D306B1F4892B09F021C1C6
:10202000C1CF512CD4CF4A9484111BC185853981ED
:102030008317E9F216C16B3018F484819581EACFD9
:1020400086819781E7CF8F3F910511F008F009C194
:102050004FEB480F782F4A3110F470E2780FA90146
:102060004F5F5F4FD70113968D919C91280F391FB9
:10207000D9019C918FEB890F8A3108F4905E9713F8
:10208000F0C06F5F32966D3009F48CCF9A01BECFED
:1020900093FDE7C0772009F4C9C0B1E04B1250CFDF
:1020A0009F01255F3F4F90E090FB979597F98191B5
:1020B000980F2E173F07C1F7E981E91341CF35E0AB
:1020C000B694A794979487943A95D1F780E2EB81E0
:1020D000FC8111928A95E9F7D8011696ED91FC9151
:1020E000AB81BC811796FC93EE93169715969C9244
:1020F0008E921497D8015C964D915D916D917C9173
:102100005F97AB81BC8118964D935D936D937C93E3
:102110001B97BFE08B229924DF01979645E0880C3E
:10212000991C4A95E1F79D01280D391DD9011B968F
:102130008C9183FD89C0CF01880D991DDC01D29659
:102140008C918771AB81BC818C93D9011B969C913A
:10215000987121F48860AB81BC818C93AB81BC8188
:1021600013967C92BA8182E0B13021F081E0B230E6
:1021700009F483E0AB81BC8112968C93AB81BC8166
:1021800012968C91129781FF04C08C91817109F095
:102190005BC043A154A165A176A1AB81BC815496DB
:1021A0004D935D936D937C935797E80DF91D83AD27
:1021B00094ADB0E0A0E07C01DD24CC249F012F5B36
:1021C0003F4FD9014D915C9170E060E04C295D2951
:1021D0006E297F29AB81BC815C964D935D936D9395
:1021E0007C935F97ED5BFF4F80819181A281B381EA
:1021F000EB81FC81808F918FA28FB38F81E00F9054
:102200000F900F900F90DF91CF911F910F91FF9042
:10221000EF90DF90CF90BF90AF909F908F907F9086
:102220006F905F904F903F902F9008954BE050E05B
:10223000B101CF010E947024892B09F0B3CED701E0
:102240008C9180FDAFCE3BCFAB81BC811C9278CE10
:10225000561438F45394882309F472CE853E09F05D
:10226000B6CE712C9FCE5614A8F36ACE1F920F9251
:102270000FB60F9211242F933F934F935F936F9359
:102280007F938F939F93AF93BF93EF93FF9383EBD2
:1022900093E00E947F03FF91EF91BF91AF919F91D7
:1022A0008F917F916F915F914F913F912F910F90FF
:1022B0000FBE0F901F9018951F920F920FB60F929E
:1022C00011242F938F939F93EF93FF93E091C30378
:1022D000F091C4038081E091C903F091CA0382FDAB
:1022E0001BC090818091CC038F5F8F732091CD03B1
:1022F000821741F0E091CC03F0E0ED54FC4F958F54
:102300008093CC03FF91EF919F918F912F910F902C
:102310000FBE0F901F9018958081F4CF1F920F92DF
:102320000FB60F9211242F933F938F939F93AF93E8
:10233000BF938091470190914801A0914901B091CC
:102340004A013091460123E0230F2D3758F50196BD
:10235000A11DB11D20934601809347019093480130
:10236000A0934901B0934A0180914B0190914C0197
:10237000A0914D01B0914E010196A11DB11D809318
:102380004B0190934C01A0934D01B0934E01BF912E
:10239000AF919F918F913F912F910F900FBE0F9012
:1023A0001F90189526E8230F0296A11DB11DD2CFCC
:1023B0001092B6031092B50388EE93E0A0E0B0E06F
:1023C0008093B7039093B803A093B903B093BA0373
:1023D00082E191E09093B4038093B30385EC90E0A5
:1023E0009093C0038093BF0384EC90E09093C2036A
:1023F0008093C10380EC90E09093C4038093C30367
:1024000081EC90E09093C6038093C50382EC90E04A
:102410009093C8038093C70386EC90E09093CA031F
:102420008093C9031092CC031092CD031092CE0377
:102430001092CF03E0EAF6E048EE53E060E070E08F
:1024400084E291E0148615861382128244835583B8
:102450006683778391838083F49627E0E037F207E1
:1024600089F710925504109277061092780684E648
:102470008093970610929C0680E580939D061092AB
:102480009E060895CF93DF93CDB7DEB7C258D1092A
:102490000FB6F894DEBF0FBECDBF789484B58260CE
:1024A00084BD84B5816084BD85B5826085BD85B5F8
:1024B000816085BD80916E00816080936E00109276
:1024C00081008091810082608093810080918100F1
:1024D0008160809381008091800081608093800082
:1024E0008091B10084608093B1008091B0008160E0
:1024F0008093B00080917A00846080937A0080910C
:102500007A00826080937A0080917A008160809363
:102510007A0080917A00806880937A001092C100DE
:102520008FEF88B987B915B880EC8BB91AB880E8F5
:1025300080BFE091C303F091C40382E08083E09107
:10254000BF03F091C0031082E091C103F091C20378
:1025500088E080831092CB03E091C703F091C80319
:1025600086E08083E091C503F091C603808180619D
:102570008083E091C503F091C603808188608083E9
:10258000E091C503F091C603808180688083E0916B
:10259000C503F091C60380818F7D808388EF91E031
:1025A0000E94EE0306E011E07EE0C72E71E0D72E18
:1025B000D801FC900E5F1F4F61E08F2D0E948004B8
:1025C00060E08F2D0E945204C016D10689F790E07A
:1025D00080E00E94112390E0909353018093520178
:1025E0008F3F910521F41092530110925201809176
:1025F00052019091530164E070E00E9472238C01BB
:10260000909353018093520185EE91E00E94EE0376
:10261000C8010E94A00BE0915201F0915301EE0F0E
:10262000FF1FEA5FFE4F61E080810E94520460E07C
:1026300081E10E94800410929A06109297061092EF
:102640009C068DE996E090939906809398060E94E7
:1026500008058B01E0909806F09099068AE0F70152
:10266000828361E00E94800461E0D70112968C9120
:102670000E945204FFB6F89480914F01811127C047
:10268000E2E2F2E08491E6E3F2E09491E82FF0E0F8
:10269000EE0FFF1FEE58FF4FA591B491EC91E92387
:1026A00021F461E08AE00E94520461E08AE00E9425
:1026B00080048CB580618CBD8CB580648CBD61E07C
:1026C0008DE00E94800461E08BE00E948004809194
:1026D0004F018F5F80934F01FFBEE0919806F0910C
:1026E000990682E58083118280919A06811104C047
:1026F00087E996E00E941405E0919806F09199060A
:1027000061E082810E9452044AE0F42E8FEF0E9421
:102710002805FA94F110FACFE0919806F091990605
:1027200060E082810E9452043AE0F32E20E030E023
:10273000A90160E087E996E00E946405E82EB1E017
:102740008B1709F44DC0FA94F1103CC080E28093DD
:10275000970687E996E00E944F0585E890E00E9481
:10276000EE0378948CE790E00E94EE0361E082E152
:102770000E94800405E010E061E082E10E945204C2
:102780006CED75E080E090E00E94D60460E082E1AC
:102790000E94520464E670E080E090E00E94D6045B
:1027A00061E082E10E9452046CED75E080E090E00F
:1027B0000E94D60461E082E10E9452040150110996
:1027C000D9F6AFC08DEF0E94280528E0C22E22E086
:1027D000D22E0E942D05E1E0CE1AD108D1F7A6CF66
:1027E0002AEA31E040E050E068E087E996E00E94A4
:1027F000640594E0F92E853041F5E0929C068091C5
:102800009C06C12CD12C7601823029F4C12CD12C0C
:10281000E12C80E4F82E20E030E0A90167E387E9AD
:1028200096E00E946405A701960169E287E996E0B7
:102830000E9464058823C1F00E940805601B710B8B
:10284000613D774040F383E482CF0E942D05809361
:102850009B06FA94F110F9CF8A3A21F482E0809332
:102860009C06CDCF85E273CF80919C068230D1F457
:1028700020E030E0A9016AE387E996E00E94640560
:10288000882311F087E363CF0E942D05807C803C74
:1028900019F483E080939C060E942D050E942D056B
:1028A0000E942D0587E996E00E944F05E091980669
:1028B000F091990680E58083118287E996E09093F4
:1028C00051048093500487E796E00E940209109219
:1028D000770681E00E94ED06882309F444C160E593
:1028E00074E087E796E00E94D00B882309F435CF87
:1028F00080917706807709F430CF61E082E10E9411
:10290000520464E670E080E090E00E94D60460E04B
:1029100082E10E94520464E670E080E090E00E9450
:10292000D6048FEB91E00E94EE03809170079091A6
:1029300071079E012F5F3F4F1901009709F019C1E0
:10294000C901845797409A83898389819A810E941B
:10295000A00BE4961FAE1EAEE497E6961FAE1EAE29
:10296000E697E8961FAE1EAEE89744E050E062E3BB
:1029700071E0CE018E589F4F0E942E0C00EA16E0A7
:10298000812C912C540185E590E08C0F9D1F419680
:10299000EE969FAF8EAFEE97AE961FAE1EAEAE9781
:1029A000E0961FAE1EAEE097E2961FAE1EAEE29717
:1029B000E4966EAD7FADE4976115710549F0E89638
:1029C0004EAD5FADE897CE0184599F4F0E942E0C0B
:1029D0004AE0B101C40101960E94DC22F10101909C
:1029E0000020E9F73197E219F309E296EEACFFAC6B
:1029F000E297EE0EFF1EEF2B69F0B701CE0184596E
:102A00009F4F0E94060C8111B9C0CE0184599F4F7F
:102A10000E94EA0BE296EEACFFACE29793E0E90E7F
:102A2000F11CB701CE0184599F4F0E94060C811101
:102A3000B7C0CE0184599F4F0E94EA0BA8961FAEE3
:102A40001EAEA897AA961FAE1EAEAA97AC961FAE52
:102A50001EAEAC97AE966EAD7FADAE9761157105AB
:102A600049F0E2964EAD5FADE297CE018A599F4F95
:102A70000E942E0CA896EEACFFACA8971D861E8671
:102A80001C821B8288EE93E0A0E0B0E08D839E83E1
:102A9000AF83B88784E291E09A8389831DAA1EAA36
:102AA000809177068077C1F0D7018C91F701B7E765
:102AB000CB2EB6E0DB2E8F3209F08FC07F018191E3
:102AC0008F32E1F360917D0670917E0681117BC0AB
:102AD000CE010D960E94D00B80E2FE013D96D801FA
:102AE0001C9601900D928A95E1F78B819C81F801EB
:102AF000938382838D819E81AF81B8858483958302
:102B0000A683B78389859A85AB85BC8580879187A5
:102B1000A287B38783E791E00E94EE0319821A82AD
:102B2000D8011F968C911F97811100C21C968C9121
:102B3000882351F0807609F4A2C18FE28DAB1EAAE2
:102B4000CE01C5960E944F0BF8018485882311F0B1
:102B500083FD61C286E491E00E94EE038BE191E087
:102B60000E94EE037FC280E00E94ED068111B7CE85
:102B7000F4CDB901681B790BCB01E5CEAE962EAD35
:102B80003FADAE97E2968EAD9FADE297B101820F59
:102B9000931F0E948624E296FFAEEEAEE2973ACFF4
:102BA000AE962EAD3FADAE97E2968EAD9FADE2975D
:102BB00067E371E0820F931F0E948624E296FFAEC6
:102BC000EEAEE2973BCFCE01C5960E94D00BFE0140
:102BD000F5966F01882309F47FCFF7019F012F5FDE
:102BE0003F4F8081803209F4A9C06A96FFAFEEAFF3
:102BF0006A97DF01CD018E1B9F0B7D012D91222352
:102C000061F02F3209F09CC0DF01A80FB91F7D01D0
:102C10002D912032E1F32F32D1F3DF01A80FB91F3C
:102C2000AD014E1B5F0BEA17FB0709F4A3C08E91A1
:102C30008E32B1F38032A1F34F3F510511F00CF009
:102C40004BCF68965FAF4EAF6897A5E5B0E0AC0F8D
:102C5000BD1F169680E28D93EE962EAD3FADEE979A
:102C6000A217B307C1F7DF01CD018E1B9F0B2D917A
:102C70002E32D1F32032C1F377247394009709F0F8
:102C8000712C9A0121503109DF01A40FB51F2F3F8C
:102C9000320709F072C0512CA7E06A2EC058DF4FEE
:102CA0001882C058D040CF57DF4F1882C158D0404B
:102CB00078E0EB967FAFEB978417950714F00C94B0
:102CC0007921BF01680F791FDB016C91603209F433
:102CD000A0C06E3221F48217930709F09AC0762FB4
:102CE0006232A1F06C3791F0B6EDB60FB63010F449
:102CF0006D3261F4B6ECB60FB63040F0B5EAB60FFF
:102D0000B33020F0BFEDB60FBE35F0F18217930758
:102D100011F00C946B217AE0671611F40C94782171
:102D2000C9016AE0662EA8E0C058DF4FA883C058EA
:102D3000D040B0E1EB96BFAFEB976CC0F9014ECF3E
:102D40002C3509F4C9CE822F877F823209F4C4CE94
:102D50002A3309F4C1CE822F8F7B8C3309F4BCCE89
:102D600082EC820F823008F4B7CE20522F3508F45F
:102D700041CFB2CE50E040E064CF6E916E3209F4A4
:102D80008ACF2150310983CF8217930721F2C0588F
:102D9000DF4FB881C058D0406B1610F40C947421EA
:102DA000BFE9B60FBA31D8F56052EB96AFADEB97ED
:102DB0005A2AC058DF4F7881C058D0407F5FA5E5C0
:102DC000B0E0AC0FBD1FC058DF4F4880C058D040A6
:102DD000A40DB11D16966C93773018F46B967FAFE7
:102DE0006B97C058DF4F7883C058D04013C0281766
:102DF000390714F40C947821C9017AE0672E68E051
:102E0000C058DF4F6883C058D04070E1EB967FAF69
:102E1000EB97712C019650CF712C6FE57FE57154C3
:102E20007A3138F6CF57DF4FB881C158D040EB9692
:102E30004FACEB97B429CF57DF4FB883C158D04080
:102E4000B8CF81E066968FAF66976B96EFAD6B97C4
:102E500025E530E02C0F3D1F2E0F311DF9018EE7C7
:102E6000868381E387830C94902122E0AE014B5A44
:102E70005F4FB601CE010D960E94840F2DCEF80152
:102E800040A151A162A173A18289938920E080961B
:102E90000E94AE06009709F457CED80150962D91A6
:102EA0003C912F70332755E0220F331F5A95E1F7DD
:102EB000280F391F2115310509F446CED90168E0E4
:102EC000F12C80E07EE29D9145E350E04C0F5D1FC8
:102ED0004F0D511D9032F9F091E09F0D883021F493
:102EE000FA017083F92E60E1AD0141505109FA01F8
:102EF00090814FEB490F4A3128F4F901448546236C
:102F000009F0905E45E350E04C0F5D1F4F0D511DE1
:102F1000FA019083F3948F5F8B30A9F6E5E3F0E03C
:102F2000EC0FFD1FEF0DF11D10820ACEF801848910
:102F30009589A689B789628973890097A105B1052A
:102F400009F051C0C1010E94D00B882309F4FCCDC7
:102F5000EE24E394F12CD8011F968C911F978E15C7
:102F600008F4F2CD50964D915C914E195F0970E0D6
:102F700060E035E0440F551F661F771F3A95D1F783
:102F8000C1010E945109882309F4DECD60E0C1012E
:102F90000E94DC0EFC01892B09F4D6CD83858F308D
:102FA00009F0D2CD80818F71E812CECDDE01D596A9
:102FB00040E0BD01453038F581819281009751F0A4
:102FC0008F37910510F08FE390E08D934F5F32962D
:102FD0004D3081F750E083EB93E00E940103BFEF97
:102FE000EB1AFB0AB8CF2CE1F10111922A95E9F70F
:102FF00020E1298321E02B8378876F838D8F9E8F3B
:10300000AF8FB8A3A5CF4B3018F484819581D6CF6C
:1030100086819781D3CF84A195A1A6A1B7A1AC0148
:10302000BD0144275E7F84179507A607B70709F0FF
:103030000CC1892B8A2B8B2B09F407C18EE091E000
:103040000E94EE03F80184A195A1A6A1B7A129E0F1
:10305000B695A795979587952A95D1F785A796A7B1
:10306000A7A7B0ABCE018A599F4F0E94FC0BCE019F
:1030700084599F4F0E94FC0BD8011C968C918111A2
:103080000DC086EB91E00E94EE034AE0C501B40159
:103090000E945C0B89EA91E00E94EE0386E891E0D1
:1030A0000E94EE034AE0C501B4010E945C0B83E874
:1030B00091E00E94EE038091700790917107009754
:1030C00009F0CAC0C101845797409A8389838981D6
:1030D0009A810E94A00BFFEF8F1A9F0AAF0ABF0AC6
:1030E0000C5C1F4F24E082169104A104B10409F086
:1030F00053CCCE018E589F4F0E94FC0B1AB85E989D
:10310000789461E070E0EC967FAF6EAFEC97CE0103
:103110000896EA969FAF8EAFEA9701E512E0EDE3DD
:10312000EE2EE2E0FE2EF9E2CF2EF2E0DF2EAFED42
:103130009A2EF8018491F701A490F601B490BB2077
:1031400009F4A7C081110E942904EB2DF0E0EE0FD5
:10315000FF1FE25FFD4FA591B4918C91A82209F465
:1031600098C004E010E054E0C52ED12C64E3B62EE4
:1031700084E093E00E94EE0380915201909153010C
:103180000E94A00B80915201909153010196B601CB
:103190000E9472237C019093530180935201B89E48
:1031A000F001B99EF00D1124E455F94F8081882378
:1031B00009F457C081EE92E00E94EE03C7010E941D
:1031C000A00B6091520190E080E00E94192361E021
:1031D00082E10E94520484E592E00E94EE03809115
:1031E0005201909153010E94A00BF12CE12C00910F
:1031F0005201109153010E151F050CF443C061E0FC
:1032000082E10E945204000F111FF801EA5FFE4F95
:10321000108161E0812F0E94520468EC70E080E030
:1032200090E00E94D60460E082E10E94520460E0D7
:10323000812F0E94520464E670E080E090E00E94DA
:10324000D604FFEFEF1AFF0AD2CF8FEC90E00E9476
:10325000EE0387E990E084CCF101E81BF90BCF0184
:1032600034CF0150110909F083CF83E792E00E9427
:10327000EE0384E090E00E94A00B109253011092A4
:1032800052019FCF68E572E080E090E00E94D60492
:10329000ACCF97B889B190E095958795959587952E
:1032A0008F708C3040F58A3050F5853009F041CF71
:1032B00080E894E00E94EE0389B190E095958795AF
:1032C000959587958F7099270597B1F31092CC0645
:1032D00010920007109234071092680784E090E083
:1032E0009093B2038093B10321E030E0EC963FAFBE
:1032F0002EAFEC9712CF8E50823008F01ACFF89490
:103300008FEF87B984E591E00E947002882311F065
:10331000789403CF789420916201253809F459C03C
:10332000E0905201F090530130915A01F0E0E0E05A
:1033300010E000E084E0C82ED12C44E3C7018E0FDA
:103340009F1FB6010E947223489FD001499FB00D74
:103350001124A056B94F9C968C91831711F00F5FE2
:103360001F4F3196E430F10549F7F093B203E09333
:10337000B1030430110569F564E670E080E090E087
:103380000E94D60482E794E00E94EE038FED87B995
:1033900045983599FECF80916201823879F050F4DA
:1033A000803808F4BACE359BFECF3599FECF359BD9
:1033B000FECFB3CE833809F0B0CEF5CF359BFECF2C
:1033C0003599FECF359BFECF3599FECF359BFECF8D
:1033D000A4CE459889B1682F647082FDFBCF10910F
:1033E0005A01253809F4E4C608F0EDC0213809F483
:1033F000F5C008F0A7C0203809F08FCE61E082E167
:103400000E94520410915A011092B2031092B1031B
:103410008091B1039091B203843091050CF07DCE80
:103420002091520130915301820F931F64E070E0AC
:103430000E94722344E3489F9001499F300D11245C
:10344000B9016056794F7B01DB019C968C91181372
:1034500079C22455394FF9018081882309F472C259
:10346000809167018F77833009F076C281E594E01F
:103470000E94EE03B701C1010E94F10A88EF8DABF3
:103480008EA49FA4A8A8B9A88EAA492C5A2C6B2C4C
:1034900077244FAA6501EE24FF24C458DF4FC88269
:1034A000D982EA82FB82CC57D040C8AE8BE089AF8C
:1034B00083E58AAF9DE49BAF91E49CAF22E52DAFFD
:1034C00094E59EAF30E53FAF3FE421963FAF2197B3
:1034D00022962FAF229723969FAF239724968FAFE4
:1034E000249784E425968FAF259780E226968FAFA8
:1034F000269727968FAF279728968FAF28972996DC
:103500008FAF29972A968FAF2A9782E02B968FAF9D
:103510002B978AE02C968FAF2C9781E02D968FAF5A
:103520002D978FE02E968FAF2E97FE01F596CF0147
:10353000499600E09F01E817F90709F424C1419179
:103540000427F9CF223809F4A9C4233809F0E5CDBE
:103550001092B2031092B103F4E0EF2EF12C04E3C9
:10356000A0E4DA2E8091B1039091B20384309105EA
:103570000CF0D3CD2091520130915301820F931F53
:10358000B7010E947223089FF001099FF00D1124DA
:10359000E056F94F84A518130CC060E8812F0E94F3
:1035A000B00AF894DAB884E591E00E94C5027894F4
:1035B0001AB88091B1039091B20301969093B2032F
:1035C0008093B103CFCF223C09F43CC208F0D0C0B5
:1035D000203C09F43DC2213C09F09FCD409064019C
:1035E00020916801309167011092B2031092B103EB
:1035F000512CC20143E0880F991F4A95E1F780786A
:1036000099273F77832B54E0440C551C5A95E1F7DA
:10361000A0E84A2255242F77422A542C4424712CA6
:10362000612C480E591E611C711C7301620179E006
:10363000CC0CDD1CEE1CFF1C7A95D1F7C458DF4F73
:10364000C882D982EA82FB82CC57D040E4E08E2E39
:10365000912C04E3F0E8FF2E8091B1039091B20326
:10366000843091050CF059CD2091520130915301D5
:10367000820F931FB4010E9472236C01089F5001B6
:10368000099FB00C1124F501E056F94F84A51813D9
:10369000FBC361E082E10E945204C458DF4F4881BD
:1036A00059816A817B81CC57D040C5018455994F9F
:1036B0000E945109811130C08BEA93E00E94EE0311
:1036C0008DE993E00E94EE03C6010E94A00B84E9FD
:1036D00093E00E94EE034AE0C301B2010E945C0B3A
:1036E0008091B1039091B203209152013091530126
:1036F000820F931FB4010E947223089FF001099F5B
:10370000F00D1124E455F94F8081882309F41DC37D
:103710008AE793E00E94EE038091B1039091B20397
:103720002091520130915301820F931FB4010E94E6
:103730007223089F9001099F300D112440E052E050
:1037400064E571E0C9018455994F0E94C30D892B2E
:1037500021F482E593E00E94EE03E4E5F1E0E12C40
:1037600023E0E435F20709F4F3C28191E826F8CFAB
:10377000233C09F46AC188EE93E0253C09F0CDCCE6
:103780000E94EE03CACC2E5E3F4F64E571E0CF5736
:10379000DF4F79836883C158D040FE01EB5AFF4F59
:1037A000BF01685F7F4FCF01A901DA01FD90AD0134
:1037B000DC01FD92CD01A617B707B9F7BF01D12CE7
:1037C00050E040E0DB018D91BD014F5F5F4F90E025
:1037D000042E02C0959587950A94E2F7A0E8EA2E98
:1037E000F12C042E02C0F594E7940A94E2F78E219E
:1037F000D82A4730510531F78D2D8068CF57DF4FDC
:10380000A881B981C158D04093968C939397CD01EC
:103810008496AF01495F5F4F61916068DC016D93F1
:10382000CD01E417F507C1F7CF57DF4FE881F981E4
:10383000C158D0403897CF57DF4FF983E883C1583C
:10384000D04027503109EC53F14009F0A6CF882D24
:10385000869586958072806C942D96959695969512
:103860009071892BED969FADED9792959870892B6D
:103870008093620188EF80936301689487F8809257
:103880006401689447F840926501ED968FADED971D
:103890008068809366018FEF809354019FE390933B
:1038A00055019FEC9093560193EF909357019CEF35
:1038B000909358018093590183EC80935A0180E8DA
:1038C00080935B019DA590935C0191E890935D01CD
:1038D00080935E0180935F0184E88093600183E8B8
:1038E00080936101EBE5F1E022E631E02E173F071E
:1038F00019F081910827FACF8EE090E09093510162
:1039000080935001802F8A6A80937F0106950A6A0E
:103910000093800188EC809381011092820162E320
:1039200070E080E090E00E94D604F89480E48AB9C8
:1039300084E591E00E94C5021AB8789460E082E1C3
:103940000E9452048091B1039091B203019690932A
:10395000B2038093B1035CCDC1010E94F10A8EA431
:103960009FA4A8A8B9A8FF24EB2CDA2CC92CA50188
:10397000662777278FEF809354019FE3909355013B
:103980009FEC9093560193EF909357019CEF909387
:1039900058018093590183EC80935A0180E8809309
:1039A0005B019DA590935C0191E890935D018093EC
:1039B0005E0180935F0194E89093600180936101C0
:1039C000282D269526952072206C8C2D869586951F
:1039D00086958071282B842F82958870282B2093C0
:1039E000620198EF90936301882D80688093640151
:1039F0008C2D806880936501842F80688093660198
:103A0000892F88258C258427EBE5F1E022E631E03B
:103A10002E173F0719F091918927FACF2EE030E059
:103A20003093510120935001982F9A6A9093670127
:103A300086958A6A8093680188EC80936901109268
:103A40006A0173CF8EE294E09BCE8AE094E098CE38
:103A500061E082E10E94520470905A011092B20318
:103A60001092B10334E0432E512C44E3642E809134
:103A7000B1039091B203843091050CF04ECB2091AC
:103A8000520130915301820F931FB2010E947223A1
:103A9000689EF001699EF00D1124E056F94F84A54F
:103AA0007812ADC0809169018F77ED968FAFED9759
:103AB00081ED93E00E94EE03ED96CFACED976C2D77
:103AC00070E090E080E040E10E945C0BE4E5F1E012
:103AD0009F0124553140590181918111F9CF86E22E
:103AE00093E00E94EE0324E5C22E21E0D22E10E0E6
:103AF00000E00A151B050CF068C01F930F936BE3E1
:103B000071E07F936F93A1E0B0E0AC0FBD1FBF9356
:103B1000AF930E948D24CE0101960E944F0B0F900F
:103B20000F900F900F900F900F90F12CE12CC70188
:103B3000800F911F8A159B05A4F182E293E00E94F9
:103B4000EE03BFEFEB1AFB0AE0E1EE16F10479F7A2
:103B500080E293E00E94EE034601F12CE12CD401B7
:103B60006D914D0180EE860F813650F5C701800FB3
:103B7000911F8A159B0524F583EB93E00E94A10316
:103B8000BFEFEB1AFB0AE0E1EE16F10441F78BE11F
:103B900093E00E94EE03005F1F4FF0E1CF0ED11CB7
:103BA000A8CFF601EE0DFF1D608170E090E080E08F
:103BB00040E10E945C0B80E491E00E944F0BC1CF7A
:103BC0008EE193E00E94EE03DBCFED962FADED97F3
:103BD0002330F9F48CEB93E00E94EE0382E491E051
:103BE0000E944F0BF89470E47AB984E591E00E944A
:103BF000C5021AB8789460E082E10E945204809174
:103C0000B1039091B20301969093B2038093B103F4
:103C10002ECF8091B1039091B20320915201309147
:103C20005301820F931FB2010E947223689EB0015C
:103C3000699E700D11246056794FCE0101960E9445
:103C4000F10A4EA55FA568A979A9BB27A72F962FD2
:103C5000852F6B01EE24FF24072F112722273327FE
:103C6000EFEFE0935401FFE3F0935501EFECE093A5
:103C70005601F3EFF0935701ECEFE0935801FFEF9B
:103C8000F0935901E3ECE0935A01E0E8E0935B0123
:103C9000FDA5F0935C01F1ECF0935D01E0935E0112
:103CA000E0935F01F5E8F0936001E0936101E42F98
:103CB000E695E695E072BE2EF80195E0F595E7955C
:103CC0009A95E1F7E470EB29E06CF82FF695F695FC
:103CD000F695F071EF2BFC2DF295F870EF2BE09339
:103CE0006201E8EFE0936301F42FF068F093640160
:103CF000F82FF068F0936501FC2DF068F0936601F1
:103D0000F02FF068F09367018427C8260C250E2752
:103D1000EBE5F1E021E0E236F20719F081910827A6
:103D2000F9CF6EE070E07093510160935001802FE5
:103D30008A6A8093680106950A6A0093690188EC93
:103D400080936A0110926B014DCF8EE593E0E2CC37
:103D50006DE473E025EA33E087E0FB01DE011196B4
:103D600001900D928A95E1F7FE013196DF01B12CA9
:103D700050E040E08D914F5F5F4F90E0042E02C015
:103D8000959587950A94E2F790E8C92ED12C042ED8
:103D900002C0D594C7940A94E2F78C21B82A473020
:103DA000510541F7D90111978B2D80688C93D9016A
:103DB000819180688D93EA96CEACDFACEA97EC15E2
:103DC000FD05B1F7675071092850310941E02D35E3
:103DD000340711F690915401892F8695807480687C
:103DE000809362019068909363016FEF6093540138
:103DF0007FE3709355018FEC8093560193EF90937E
:103E00005701ACEFA093580160935901B3ECB09304
:103E10005A01F0925B0110935C0182E880935D018E
:103E2000F0925E01F0925F0181E88093600189EC7D
:103E300080936101EBE5F1E021E0E236F20719F051
:103E40008191E826F9CF6EE070E0709351016093A4
:103E500050018E2D8A6A8093AC038E2D86958A6AD6
:103E60008093AD0388EC8093AE031092AF03F89477
:103E700080E48AB984E591E00E94C5021AB878947A
:103E800060E082E10E9452048091B1039091B203FC
:103E900001969093B2038093B103DECB1092B203EC
:103EA0001092B103F4E04F2E512C99249A948091F2
:103EB000B1039091B203843091050CF02EC920918A
:103EC000520130915301820F931FB2010E9472235D
:103ED00074E3789FF001799FF00D1124E056F94FBB
:103EE00084A5181357C14091640150E020916701E7
:103EF0002F77CA0163E0880F991F6A95E1F78078F0
:103F00009927822B209168012F7774E0440F551F69
:103F10007A95E1F740785527422B542F442770E0DB
:103F200060E06A017B01C80ED91EE11CF11CC45877
:103F3000DF4FC882D982EA82FB82CC57D040F89406
:103F400097B884E591E00E9470028111FACF7894CD
:103F5000459889B1082F047082FDFBCF20915F0145
:103F60002F77A0916001AF77EAE5F1E0712C31E69F
:103F7000E32E31E0F32EEE16FF0619F0819178263C
:103F8000F6CF6DE070E07093510160935001809125
:103F9000AB038575882E6090AC03660C762D7A7A1B
:103FA000672EE4E5F1E050E040E030E042175307CF
:103FB0007CF44F5F5F4F80916101042E01C0880F38
:103FC0000A94EAF7807896859F77892B8193EECFC4
:103FD00044E551E0BA01F12CE12CAA2EB12CEA14EF
:103FE000FB04BCF588E0FA013F96DE0111960190D2
:103FF0000D928A95E1F7E9818E2F90E0CF57DF4F40
:1040000099838883C158D040DE01129690E080E009
:104010000196ED916B01C80ED91ECF57DF4F288155
:104020003981C158D040082E01C0220F0A94EAF706
:1040300020783E2F3F77232BF60120838730910590
:1040400039F7FFEFEF1AFF0A695F7F4F485F5F4F55
:10405000C6CFE4E5F1E023E0E435F20719F0819101
:104060007826F9CF60E072E07093510160935001BF
:10407000862880E0781086E0D82E811141C061E06A
:1040800082E10E9452048091B1039091B203209189
:10409000520130915301820F931FB2010E9472238B
:1040A00074E3789F9001799F300D1124C9018455E4
:1040B000994F7C01C458DF4F488159816A817B81C7
:1040C000CC57D04029E0440F551F661F771F2A9513
:1040D000D1F70E945109811104C080E493E00E944D
:1040E000EE0340E052E064E571E0C7010E944F0C2E
:1040F000892B31F483E393E00E94EE03B6E0DB2EDC
:10410000909254019FE390935501AFECA093560118
:10411000B3EFB0935701ECEFE0935801909259013F
:1041200083EC80935A0190E890935B0110935C01BB
:1041300081E880935D0190935E018D2D806880936E
:104140005F019093600190936101EBE5F1E021E064
:10415000E236F20719F081910827F9CF6EE070E09E
:104160007093510160935001802F8A6A809362019D
:1041700006950A6A0093630188EC809364011092AB
:104180006501F89480E48AB984E591E00E94C50253
:104190001AB8789460E082E10E9452048091B103E1
:1041A0009091B20301969093B2038093B1037FCEB6
:1041B000EC968EAD9FADEC97843091050CF06AC003
:1041C00001972091520130915301820F931F64E0B7
:1041D00070E00E94722324E3289FF001299FF00DD4
:1041E0001124E056F94F14A7EC96AEADBFADEC9795
:1041F0001196EC96BFAFAEAFEC9760E8812F0E94AE
:10420000B00AF89480E48AB984E591E00E94C5027E
:104210001AB87894EC966EAD7FADEC976530710569
:1042200011F00C948D181092B2031092B10374E047
:10423000E72EF12CE4E3DE2E0091B1031091B203DE
:104240000430110514F00C948D1889E293E00E945B
:10425000EE038091520190915301800F911FB7019D
:104260000E947223D89EF001D99EF00D1124E056D1
:10427000F94F64A570E090E080E040E10E945C0BA3
:104280008091B1039091B20301969093B203809311
:10429000B103D2CFEC96EEADFFADEC97E430F10573
:1042A00009F0ACCF80915201909153010396BF0168
:1042B0000E94722324E3289FF001299FF00D11240E
:1042C000E056F94F14A76FEF25E030E0EC963FAFD2
:1042D0002EAFEC9793CFC058DF4F4880C058D040E6
:1042E000641410F00C940C176AE066120C94F71624
:1042F000712C6C968FAD6C97803211F40C946C1508
:10430000772011F40C942117CF57DF4F4880C15804
:10431000D040452011F062E0562E66965FAE66975B
:10432000D7018C91882311F40C94351720E0AE014D
:104330004B5A5F4FB601CE010D960E94840F882321
:1043400011F40C946C1580E2FE013D96DE01D596C9
:1043500001900D928A95E1F7CE010D960E94020917
:104360001D866E01B5E3CB0ED11C0C94ED150F9399
:104370001F93CF93DF938230910510F482E090E099
:10438000E0917207F091730730E020E0B0E0A0E028
:10439000309799F42115310509F44AC0281B390BCF
:1043A00024303105D8F58A819B816115710589F129
:1043B000FB0193838283FE0111C040815181028100
:1043C000138148175907E0F04817590799F41097D7
:1043D00061F012960C93129713961C933296CF01AC
:1043E000DF91CF911F910F91089500937207109361
:1043F0007307F4CF2115310551F04217530738F0F8
:10440000A901DB019A01BD01DF01F801C1CFEF0174
:10441000F9CF9093730780937207CDCFFE01E20F1F
:10442000F31F819391932250310939832883D7CF89
:104430002091700730917107232B41F420910201E4
:104440003091030130937107209370072091000190
:10445000309101012115310541F42DB73EB740914E
:10446000040150910501241B350BE0917007F09178
:104470007107E217F307A0F42E1B3F0B281739072B
:1044800078F0AC014E5F5F4F2417350748F04E0FB0
:104490005F1F5093710740937007819391939FCF53
:1044A000F0E0E0E09CCFCF93DF930097E9F0FC01D0
:1044B000329713821282A0917207B0917307ED01B7
:1044C00030E020E01097A1F420813181820F931F0A
:1044D00020917007309171072817390709F061C0E2
:1044E000F0937107E0937007DF91CF910895EA018F
:1044F000CE17DF07E8F54A815B819E014115510522
:10450000B1F7E901FB83EA8349915991C40FD51FA3
:10451000EC17FD0761F4808191810296840F951F4D
:10452000E90199838883828193819B838A83F0E068
:10453000E0E012968D919C9113970097B9F52D911B
:104540003C911197CD010296820F931F2091700725
:10455000309171072817390739F6309751F51092C5
:10456000730710927207B0937107A0937007BCCFC6
:10457000D383C28340815181840F951FC817D90707
:1045800061F44E5F5F4F88819981480F591F5183B5
:1045900040838A819B81938382832115310509F0B1
:1045A000B0CFF0937307E09372079ECFFD01DC015B
:1045B000C0CF13821282D7CFBB274A3031F4992360
:1045C00022F4BDE2909581959F4F0C94E822BB2781
:1045D000FB015527AA27880F991FAA1FA41710F0BF
:1045E000A41B83955051B9F7A05DAA3308F0A95DCB
:1045F000A193009779F7B111B1931192CB010C946B
:104600000123DC01FC01672F71917723E1F73297D9
:1046100004C07C916D9370836291AE17BF07C8F39D
:104620000895F999FECF92BD81BDF89A992780B57A
:104630000895262FF999FECF1FBA92BD81BD20BDE6
:104640000FB6F894FA9AF99A0FBE019608952F9230
:104650003F924F925F926F927F928F929F92AF9212
:10466000BF92CF92DF92EF92FF920F931F93CF935F
:10467000DF93CDB7DEB7CA1BDB0B0FB6F894DEBFF6
:104680000FBECDBF09942A88398848885F846E841C
:104690007D848C849B84AA84B984C884DF80EE8066
:1046A000FD800C811B81AA81B981CE0FD11D0FB66F
:1046B000F894DEBF0FBECDBFED010895AA1BBB1B52
:1046C00051E107C0AA1FBB1FA617B70710F0A61B12
:1046D000B70B881F991F5A95A9F780959095BC0133
:1046E000CD01089597FB072E16F4009407D077FDAF
:1046F00009D00E945E2307FC05D03EF49095819579
:104700009F4F0895709561957F4F0895A1E21A2EED
:10471000AA1BBB1BFD010DC0AA1FBB1FEE1FFF1F65
:10472000A217B307E407F50720F0A21BB30BE40BB5
:10473000F50B661F771F881F991F1A9469F76095FC
:104740007095809590959B01AC01BD01CF010895B6
:10475000EE0FFF1F0590F491E02D0994B0E0A0E06A
:10476000E4EBF3E20C9429238C01009751F4CB0184
:104770000E94B7218C01C801CDB7DEB7E0E10C94EF
:104780004523FC01E60FF71F9C0122503109E21777
:10479000F30708F49DC0D901CD91DC911197C6179C
:1047A000D70798F0C530D10530F3CE0104978617AE
:1047B000970708F3C61BD70B2297C193D1936D932C
:1047C0007C93CF010E945322D6CF5B01AC1ABD0A65
:1047D0004C018C0E9D1EA0917207B0917307512C55
:1047E000412CF12CE12C109731F5809170079091BC
:1047F00071078815990509F05CC04616570608F040
:1048000058C08091000190910101009741F48DB74B
:104810009EB74091040150910501841B950BE81748
:10482000F90708F055C0F0937107E0937007F9019C
:1048300071836083A0CF8D919C91119712966C909B
:10484000129713967C901397A815B90559F56C012A
:1048500042E0C40ED11CCA14DB0420F1AC014A1999
:104860005B09DA011296159780F062827382518398
:104870004083D9016D937C93E114F10471F0D70169
:104880001396FC93EE93129776CF22968C0F9D1F72
:10489000F90191838083F301EFCFF0937307E093E5
:1048A000720769CF4816590608F42C017D01D3011F
:1048B0009ACFCB010E94B7217C01009749F0AE014D
:1048C000B8010E947D24C8010E945322870153CF62
:1048D00010E000E050CF81E090E0F8940C942E2797
:1048E000FB01DC0104C08D910190801921F441503D
:1048F0005040C8F7881B990B0895FB01DC0102C0EA
:1049000001900D9241505040D8F70895FB01DC0111
:1049100001900D920020E1F70895AEE0B0E0E3E9E8
:10492000F4E20C9435230D891E8986E08C831A836A
:1049300009838FEF9FE79E838D83AE01475E5F4FB4
:104940006F89788DCE0101960E94B0242F81388521
:10495000020F131FF80110822E96E4E00C945123ED
:10496000ABE0B0E0E6EBF4E20C9427237C013B01E2
:104970008A01FC0117821682838181FFC8C1CE01A2
:1049800001965C01F7019381F30193FD859193FFFB
:1049900081913F01882309F453C1853239F493FD95
:1049A000859193FF81913F01853229F4B70190E011
:1049B0000E94A026E7CF912C212C312CFFE1F3158A
:1049C00038F08B3211F190F4803209F1833229F101
:1049D00037FC3CC020ED280F2A3050F536FE20C0B1
:1049E0008AE0989E200D1124922E06C08D3291F0FF
:1049F000803371F7689430F8F30193FD859193FF4C
:104A000081913F018111DACF21C0689431F8689417
:104A100032F8F2CF689433F8EFCF689434F8ECCFE3
:104A2000EAE02E9E200D1124222E689435F8E4CF62
:104A30008E3229F436FC04C1689436F8DDCF8C360A
:104A400019F4689437F8D8CF8836B1F2982F9F7D43
:104A500095549330E0F08336A1F18337C1F183356B
:104A600009F063C02801F2E04F0E511CF801C0802C
:104A7000D180692D70E036FC02C06FEF7FEFC60178
:104A80000E948A264C01689437F882010AC00C5FA4
:104A90001F4FFFE3F98388248394912C6501E894E8
:104AA00037F833FE2DC0522C8114910471F5552036
:104AB00009F468CFB70180E290E00E94A0265A94E2
:104AC000F6CFF801808189830E5F1F4FE4CF280164
:104AD000F2E04F0E511CF801C080D180692D70E0CA
:104AE00036FC02C06FEF7FEFC6010E9495264C0195
:104AF0008201D5CFB70180E290E00E94A0262A94DF
:104B00002814190409F0B0F7CECFF60137FC8591CF
:104B100037FE81916F01B70190E00E94A0265110ED
:104B20005A94F1E08F1A9108BFCF843619F0893674
:104B300009F077C0F80137FE6BC060817181828116
:104B400093810C5F1F4FF32DFF763F2E97FF09C017
:104B500090958095709561957F4F8F4F9F4F68948A
:104B600037F82AE030E0A5010E94D026C82ECA18E6
:104B70008C2C432C36FE0CC0E89440F8C91440F449
:104B800034FE05C032FC03C0F32DFE7E4F2E892C6F
:104B900044FE95C0FE01EC0DF11D8081803309F0CB
:104BA00087C0242D297E422E842D8870582E43FCE8
:104BB00095C040FE8FC09C2C821418F42C0C922CB3
:104BC000981844FE91C0B70180E390E00E94A026AF
:104BD00042FE09C088E790E041FE02C088E590E00F
:104BE000B7010E94A026C91408F48AC0CA94D12C27
:104BF0009FEFC91AD90ACA0CDB1CF60182916F011A
:104C0000B70190E00E94A026AC14BD04B1F74FCFCD
:104C100060817181072E000C880B990B0E5F1F4F6E
:104C200092CFD32CE894D4F82AE030E0853739F1DC
:104C3000232D297FD22E8F3601F148F48835A9F033
:104C4000F701868197812B96E2E10C94432380370C
:104C500049F08837A9F7D4FE02C06894D2F820E161
:104C600030E00DC06894D4F8F6CF34FE03C0822F34
:104C70008660D82E20E132E002C028E030E0F80162
:104C8000D7FE0FC060817181828193810C5F1F4FBD
:104C9000A5010E94D026C82ECA183D2CE89437F8EA
:104CA00067CF6081718190E080E00E5F1F4FF0CF91
:104CB00042FC02C0839478CF8394839475CF842D73
:104CC000867809F471CFF6CFB70180E290E00E94B8
:104CD000A02683948214C0F3512C73CF522C581801
:104CE000821408F46ECFF8CF842D867809F47BCF38
:104CF0008BE241FE80E247FC8DE2B70190E071CF8C
:104D0000B70180E390E00E94A0269A946CCF8FEFC9
:104D10009FEF99CFFC010590615070400110D8F7CA
:104D2000809590958E0F9F1F0895FC0161507040F3
:104D300001900110D8F7809590958E0F9F1F0895D0
:104D40000F931F93CF93DF93182F092FEB018B81C4
:104D500081FD09C01FEF0FEF812F902FDF91CF91C1
:104D60001F910F91089582FF14C02E813F818C8185
:104D70009D81281739073CF4E881F981CF0101961C
:104D80009983888310838E819F8101969F838E8370
:104D9000E3CFE885F985812F0995892BA1F3DACF37
:104DA000FA01AA27283051F1203181F1E8946F935C
:104DB0006E7F6E5F7F4F8F4F9F4FAF4FB1E03ED002
:104DC000B4E03CD0670F781F891F9A1FA11D680FA0
:104DD000791F8A1F911DA11D6A0F711D811D911DD3
:104DE000A11D20D009F468943F912AE0269F112448
:104DF0003019305D3193DEF6CF010895462F4770AC
:104E0000405D4193B3E00FD0C9F7F6CF462F4F7006
:104E1000405D4A3318F0495D31FD4052419302D064
:104E2000A9F7EACFB4E0A69597958795779567950A
:104E3000BA95C9F700976105710508959B01AC010A
:104E40000A2E06945795479537952795BA95C9F731
:104E5000620F731F841F951FA01D0895F894FFCF44
:104E60000000740780000E000F0010000800000012
:104E70000000A10301032E0309045F033D03510356
:104E800000000000B10DAE0D4C0B290B2C0B6C0F6C
:104E90002D0F50415254002E504F00253034583AB7
:064EA00020000D0A0000D5
:107E0000112484B714BE81FFF0D085E080938100F7
:107E100082E08093C00088E18093C10086E0809377
:107E2000C20080E18093C4008EE0C9D0259A86E02C
:107E300020E33CEF91E0309385002093840096BBD3
:107E4000B09BFECF1D9AA8958150A9F7CC24DD24C4
:107E500088248394B5E0AB2EA1E19A2EF3E0BF2EE7
:107E6000A2D0813461F49FD0082FAFD0023811F036
:107E7000013811F484E001C083E08DD089C08234E0
:107E800011F484E103C0853419F485E0A6D080C0E4
:107E9000853579F488D0E82EFF2485D0082F10E0AE
:107EA000102F00270E291F29000F111F8ED06801E7
:107EB0006FC0863521F484E090D080E0DECF843638
:107EC00009F040C070D06FD0082F6DD080E0C81688
:107ED00080E7D80618F4F601B7BEE895C0E0D1E017
:107EE00062D089930C17E1F7F0E0CF16F0E7DF06D8
:107EF00018F0F601B7BEE89568D007B600FCFDCFD4
:107F0000A601A0E0B1E02C9130E011968C91119780
:107F100090E0982F8827822B932B1296FA010C0160
:107F200087BEE89511244E5F5F4FF1E0A038BF0790
:107F300051F7F601A7BEE89507B600FCFDCF97BE46
:107F4000E89526C08437B1F42ED02DD0F82E2BD052
:107F50003CD0F601EF2C8F010F5F1F4F84911BD097
:107F6000EA94F801C1F70894C11CD11CFA94CF0C13
:107F7000D11C0EC0853739F428D08EE10CD085E9AC
:107F80000AD08FE07ACF813511F488E018D01DD067
:107F900080E101D065CF982F8091C00085FFFCCF94
:107FA0009093C60008958091C00087FFFCCF809118
:107FB000C00084FD01C0A8958091C6000895E0E648
:107FC000F0E098E1908380830895EDDF803219F02E
:107FD00088E0F5DFFFCF84E1DECF1F93182FE3DFCA
:107FE0001150E9F7F2DF1F91089580E0E8DFEE27F6
:047FF000FF270994CA
:027FFE00040479
:00000001FF
